:020000040800F2
:1000000000400020290400088B0300088D0300082D
:100010008F0300089103000893030008000000000C
:100020000000000000000000000000009503000830
:100030009703000800000000990300089B030008D4
:1000400025040008250400082504000825040008EC
:1000500025040008250400082504000825040008DC
:1000600025040008250400082504000825040008CC
:1000700025040008250400082504000825040008BC
:1000800025040008250400080000000025040008DD
:10009000250400082504000825040008250400089C
:1000A000250400082504000825040008250400088C
:1000B00025040008000000002504000800000000DE
:1000C00025040008000000002504000800000000CE
:1000D0000000000000000000000000000000000020
:1000E00000000000000000002504000800000000DF
:1000F0000000000000000000000000000000000000
:1001000025040008000000000000000000000000BE
:1001100000000000000000000000000000000000DF
:1001200000000000000000000000000000000000CF
:1001300000000000000000000000000000000000BF
:10014000000000000000000000000000250400087E
:10015000830903F1604303F58423196800F01F004D
:10016000012282400A431A6070472DE9F04101F0F4
:100170000F0E11F0100F03D0042A05D04EEA020E24
:10018000002201260F270AE04EF0030EC26B1A432D
:10019000C263F5E7446105600132082A14D006FA0B
:1001A00002F41C40F8D005684FEA820C07FA0CF8FC
:1001B00025EA08050EFA0CFC4CEA05052829E9D0C9
:1001C000482908BF0461E6E7002501274FF00F0822
:1001D00005E04461466001320435102A13D007FA65
:1001E00002FC1CEA0304F6D0466808FA05FC26EA7D
:1001F0000C0C0EFA05F646EA0C062829E9D0482927
:1002000008BF0461E6E7BDE8F08101617047416124
:100210007047830903F1804303F50433196800F044
:100220001F00012282400A431A607047134A536834
:1002300023F0805323F44043D26A22F000520B286B
:1002400009D8DFE800F006060606080C080C1313B0
:10025000131343EA803309494B60CA627047084967
:1002600001EA80310B4343F08053F4E7054901EA8A
:1002700080310B4342F00052EDE700BF0010024016
:1002800000C0FEFF00C0FCFF38B5214C1023032244
:1002900019462046FFF769FF20230322102120463C
:1002A000FFF763FF1B4D0123032210212846FFF7B0
:1002B0005CFF0223032210212846FFF756FFA5F515
:1002C00080654023032204212846FFF74EFF802348
:1002D000032204212846FFF748FF4023032204217C
:1002E0002046FFF742FF8023032204212046FFF728
:1002F0003CFF4FF48073032204212046FFF735FFB3
:100300004FF40073032204212046FFF72EFF38BD6F
:1003100000100140000C014008B540F20260FFF7F8
:1003200078FF40F20360FFF774FF40F20460FFF7CC
:1003300070FF40F20560FFF76CFF4FF4C060FFF7FD
:1003400068FF40F20B60FFF764FF40F20960FFF7BF
:1003500060FF40F20A60FFF75CFF40F20F60FFF7BA
:1003600058FF0220FFF762FF40F21570FFF751FFC0
:1003700040F21D70FFF74DFF40F21270FFF749FF8A
:100380004FF4A060FFF745FF08BD7047FEE7FEE7AA
:10039000FEE7FEE7704770477047704708B500F00A
:1003A00075F84FF48570FFF7D3FE4FF4FA7000F044
:1003B0001DF9FFF7B1FFFFF767FF184E184D19241D
:1003C00002213046FFF723FF10212846FFF71DFFCB
:1003D000204600F00BF910212846FFF718FF2021D6
:1003E0002846FFF712FF204600F000F9202128469A
:1003F000FFF70DFF01213046FFF707FF204600F011
:10040000F5F801213046FFF702FF02213046FFF7E1
:10041000FCFE204600F0EAF8D2E700BF000C0140E5
:10042000001001407047000008B5124A124B9A4272
:100430000CD2581E801A20F0030004300F4B1844D1
:1004400053F8041B42F8041B8342F9D10C4A0D4BAC
:100450009A420BD213460C4AD21A22F003020432FB
:100460001A44002143F8041B9342FBD1FFF796FF87
:10047000FEE700BF00000020000000202806000862
:100480000000002000000020FFFFFF1F82B0544A40
:10049000D2F8883043F47003C2F88830514A1368A8
:1004A00043F001031360136813F0020FFBD04D4AB1
:1004B000536843F08003536000230193019B4F2B4B
:1004C00005D8019B01330193019B4F2BF9D9454A74
:1004D000536843F09003536000230193019B4F2B1B
:1004E00005D8019B01330193019B4F2BF9D93D4B5B
:1004F0005A6822F003025A601A6822F0847222F4C9
:1005000080321A604FF41F029A601A6822F4802227
:100510001A6000225A60DA621A6842F480321A6065
:100520004FF6FF732F490A6812F4003F01D1013BD7
:10053000F9D12C4B1B6813F4003F00D1FEE7294B87
:10054000DA6942F08052DA6127490A6842F440428F
:100550000A605A685A605A685A605A6842F480625F
:100560005A605A6822F440325A605A6842F4403263
:100570005A605A6822F0904222F470125A605A6807
:1005800042F0036242F480225A601A6842F080729C
:100590001A601A46136813F0007FFBD0124A1368E2
:1005A00043F480331360536813F4803FFBD00E4A4A
:1005B000136843F400331360536813F4003FFBD017
:1005C000084B5A6822F003025A605A6842F002024D
:1005D0005A601A46536813F0080FFBD002B07047F8
:1005E00000ED00E0001002400070004082B00A4BB5
:1005F0000193019B094AA2FB03235B0B00FB03F35E
:100600000193019B2BB1019B013B0193019B002BAB
:10061000F9D102B0704700BF00A24A045917B7D100
:04062000F8B500BF6A
:04062400F8B500BF66
:0400000508000429C2
:00000001FF
